{
    "contractName": "TerraconQuestLobby",
    "abi": [
        {
            "inputs": [],
            "stateMutability": "nonpayable",
            "type": "constructor"
        },
        {
            "inputs": [],
            "name": "MAX_PLAYERS_PER_LOBBY",
            "outputs": [
                {
                    "internalType": "uint256",
                    "name": "",
                    "type": "uint256"
                }
            ],
            "stateMutability": "view",
            "type": "function"
        },
        {
            "inputs": [],
            "name": "ROUND_CANCEL_TIME",
            "outputs": [
                {
                    "internalType": "uint256",
                    "name": "",
                    "type": "uint256"
                }
            ],
            "stateMutability": "view",
            "type": "function"
        },
        {
            "inputs": [],
            "name": "SINGLE_ROUND_TIME",
            "outputs": [
                {
                    "internalType": "uint256",
                    "name": "",
                    "type": "uint256"
                }
            ],
            "stateMutability": "view",
            "type": "function"
        },
        {
            "inputs": [],
            "name": "cancelRound",
            "outputs": [],
            "stateMutability": "nonpayable",
            "type": "function"
        },
        {
            "inputs": [
                {
                    "internalType": "uint256",
                    "name": "",
                    "type": "uint256"
                }
            ],
            "name": "cancelledRounds",
            "outputs": [
                {
                    "internalType": "bool",
                    "name": "",
                    "type": "bool"
                }
            ],
            "stateMutability": "view",
            "type": "function"
        },
        {
            "inputs": [],
            "name": "currentRoundNo",
            "outputs": [
                {
                    "internalType": "uint256",
                    "name": "",
                    "type": "uint256"
                }
            ],
            "stateMutability": "view",
            "type": "function"
        },
        {
            "inputs": [],
            "name": "finishRound",
            "outputs": [],
            "stateMutability": "nonpayable",
            "type": "function"
        },
        {
            "inputs": [
                {
                    "internalType": "uint256",
                    "name": "",
                    "type": "uint256"
                },
                {
                    "internalType": "address",
                    "name": "",
                    "type": "address"
                }
            ],
            "name": "players",
            "outputs": [
                {
                    "internalType": "bool",
                    "name": "",
                    "type": "bool"
                }
            ],
            "stateMutability": "view",
            "type": "function"
        },
        {
            "inputs": [
                {
                    "internalType": "uint256",
                    "name": "",
                    "type": "uint256"
                }
            ],
            "name": "roundStartTime",
            "outputs": [
                {
                    "internalType": "uint256",
                    "name": "",
                    "type": "uint256"
                }
            ],
            "stateMutability": "view",
            "type": "function"
        },
        {
            "inputs": [
                {
                    "internalType": "uint256",
                    "name": "",
                    "type": "uint256"
                }
            ],
            "name": "roundStatus",
            "outputs": [
                {
                    "internalType": "enum TerraconQuestLobby.RoundStatus",
                    "name": "",
                    "type": "uint8"
                }
            ],
            "stateMutability": "view",
            "type": "function"
        },
        {
            "inputs": [],
            "name": "startNewRound",
            "outputs": [],
            "stateMutability": "nonpayable",
            "type": "function"
        }
    ],
    "bytecode": "608060405234801561001057600080fd5b5060016000818155526002602052427fe90b7bceb6e7df5418fb78d8ee546e97c83a08bbccc01a0644d599ccd2a7c2e0556103d5806100506000396000f3fe608060405234801561001057600080fd5b50600436106100a95760003560e01c8063bd85948c11610071578063bd85948c14610110578063c0f8092114610118578063c137a60f14610146578063c9067cbe14610166578063d44bfee914610166578063e35154a51461016f57600080fd5b80631a8fb62e146100ae578063547916ea146100ca57806386a594d0146100ca57806388f75fdc146100d4578063b7a4395d146100dd575b600080fd5b6100b760005481565b6040519081526020015b60405180910390f35b6100d261019f565b005b6100b76101f481565b6101006100eb3660046102c4565b60046020526000908152604090205460ff1681565b60405190151581526020016100c1565b6100d261028b565b6101006101263660046102dd565b600360209081526000928352604080842090915290825290205460ff1681565b6100b76101543660046102c4565b60026020526000908152604090205481565b6100b7610e1081565b61019261017d3660046102c4565b60016020526000908152604090205460ff1681565b6040516100c1919061032f565b6000805481526001602052604081205460ff1660028111156101c3576101c3610319565b146102095760405162461bcd60e51b8152602060048201526011602482015270149bdd5b99081b9bdd081cdd185c9d1959607a1b60448201526064015b60405180910390fd5b60008054815260026020526040902054429061022890610e109061036d565b1061026c5760405162461bcd60e51b8152602060048201526014602482015273149bdd5b99081d1a5b59481b9bdd08195b99195960621b6044820152606401610200565b600080548152600160208190526040909120805460ff19169091179055565b42600260008054600161029e919061036d565b81526020019081526020016000208190555060008081546102be90610386565b90915550565b6000602082840312156102d657600080fd5b5035919050565b600080604083850312156102f057600080fd5b8235915060208301356001600160a01b038116811461030e57600080fd5b809150509250929050565b634e487b7160e01b600052602160045260246000fd5b602081016003831061035157634e487b7160e01b600052602160045260246000fd5b91905290565b634e487b7160e01b600052601160045260246000fd5b8082018082111561038057610380610357565b92915050565b60006001820161039857610398610357565b506001019056fea2646970667358221220b29772ada35b0642a1d6e32708bf71784ea24a5e07b1f0e9fd37c9b2b2e9eb3264736f6c63430008130033",
    "sourcePath": "/home/ciao/Projects/TerraconQuestLobby/contracts/TerraconQueryLobby.sol",
    "compiler": {
        "name": "solc",
        "version": "0.8.19+commit.7dd6d404"
    },
    "functionHashes": {
        "MAX_PLAYERS_PER_LOBBY()": "88f75fdc",
        "ROUND_CANCEL_TIME()": "d44bfee9",
        "SINGLE_ROUND_TIME()": "c9067cbe",
        "cancelRound()": "86a594d0",
        "cancelledRounds(uint256)": "b7a4395d",
        "currentRoundNo()": "1a8fb62e",
        "finishRound()": "547916ea",
        "players(uint256,address)": "c0f80921",
        "roundStartTime(uint256)": "c137a60f",
        "roundStatus(uint256)": "e35154a5",
        "startNewRound()": "bd85948c"
    },
    "gasEstimates": {
        "creation": {
            "codeDepositCost": "196200",
            "executionCost": "44467",
            "totalCost": "240667"
        },
        "external": {
            "MAX_PLAYERS_PER_LOBBY()": "251",
            "ROUND_CANCEL_TIME()": "272",
            "SINGLE_ROUND_TIME()": "250",
            "cancelRound()": "35278",
            "cancelledRounds(uint256)": "2539",
            "currentRoundNo()": "2285",
            "finishRound()": "35256",
            "players(uint256,address)": "2621",
            "roundStartTime(uint256)": "2471",
            "roundStatus(uint256)": "2601",
            "startNewRound()": "48794"
        }
    }
}